{
  "_format": "hh-sol-artifact-1",
  "contractName": "TokenLock",
  "sourceName": "contracts/TokenLock.sol",
  "abi": [
    {
      "inputs": [
        {
          "internalType": "uint256",
          "name": "_duration",
          "type": "uint256"
        }
      ],
      "stateMutability": "nonpayable",
      "type": "constructor"
    },
    {
      "inputs": [
        {
          "internalType": "address",
          "name": "token",
          "type": "address"
        },
        {
          "internalType": "uint256",
          "name": "amount",
          "type": "uint256"
        }
      ],
      "name": "deposit",
      "outputs": [],
      "stateMutability": "nonpayable",
      "type": "function"
    },
    {
      "inputs": [],
      "name": "duration",
      "outputs": [
        {
          "internalType": "uint256",
          "name": "",
          "type": "uint256"
        }
      ],
      "stateMutability": "view",
      "type": "function"
    },
    {
      "inputs": [],
      "name": "end",
      "outputs": [
        {
          "internalType": "uint256",
          "name": "",
          "type": "uint256"
        }
      ],
      "stateMutability": "view",
      "type": "function"
    },
    {
      "inputs": [],
      "name": "owner",
      "outputs": [
        {
          "internalType": "address payable",
          "name": "",
          "type": "address"
        }
      ],
      "stateMutability": "view",
      "type": "function"
    },
    {
      "inputs": [
        {
          "internalType": "address payable",
          "name": "newOwner",
          "type": "address"
        }
      ],
      "name": "transferOwnership",
      "outputs": [],
      "stateMutability": "nonpayable",
      "type": "function"
    },
    {
      "inputs": [
        {
          "internalType": "address",
          "name": "token",
          "type": "address"
        },
        {
          "internalType": "uint256",
          "name": "amount",
          "type": "uint256"
        }
      ],
      "name": "withdraw",
      "outputs": [],
      "stateMutability": "nonpayable",
      "type": "function"
    },
    {
      "stateMutability": "payable",
      "type": "receive"
    }
  ],
  "bytecode": "0x60c060405234801561001057600080fd5b5060405161055e38038061055e83398101604081905261002f91610059565b600080546001600160a01b0319163317905560a08190526100508142610071565b60805250610095565b60006020828403121561006a578081fd5b5051919050565b6000821982111561009057634e487b7160e01b81526011600452602481fd5b500190565b60805160a05161049e6100c06000396000607701526000818161011801526102fe015261049e6000f3fe6080604052600436106100595760003560e01c80630fb5a6b41461006557806347e7ef24146100ac5780638da5cb5b146100ce578063efbe1c1c14610106578063f2fde38b1461013a578063f3fef3a31461015a57610060565b3661006057005b600080fd5b34801561007157600080fd5b506100997f000000000000000000000000000000000000000000000000000000000000000081565b6040519081526020015b60405180910390f35b3480156100b857600080fd5b506100cc6100c7366004610405565b61017a565b005b3480156100da57600080fd5b506000546100ee906001600160a01b031681565b6040516001600160a01b0390911681526020016100a3565b34801561011257600080fd5b506100997f000000000000000000000000000000000000000000000000000000000000000081565b34801561014657600080fd5b506100cc6101553660046103e2565b61024c565b34801561016657600080fd5b506100cc610175366004610405565b6102b5565b600081116101c05760405162461bcd60e51b815260206004820152600e60248201526d416d6f756e74206973207a65726f60901b60448201526064015b60405180910390fd5b6040516323b872dd60e01b8152336004820152306024820152604481018290526001600160a01b038316906323b872dd906064015b602060405180830381600087803b15801561020f57600080fd5b505af1158015610223573d6000803e3d6000fd5b505050506040513d601f19601f820116820180604052508101906102479190610430565b505050565b6000546001600160a01b031633146102935760405162461bcd60e51b815260206004820152600a60248201526927b7363c9037bbb732b960b11b60448201526064016101b7565b600080546001600160a01b0319166001600160a01b0392909216919091179055565b6000546001600160a01b031633146102fc5760405162461bcd60e51b815260206004820152600a60248201526927b7363c9037bbb732b960b11b60448201526064016101b7565b7f00000000000000000000000000000000000000000000000000000000000000004210156103585760405162461bcd60e51b8152602060048201526009602482015268546f6f206561726c7960b81b60448201526064016101b7565b6001600160a01b0382166103a557600080546040516001600160a01b039091169183156108fc02918491818181858888f1935050505015801561039f573d6000803e3d6000fd5b506103de565b60005460405163a9059cbb60e01b81526001600160a01b039182166004820152602481018390529083169063a9059cbb906044016101f5565b5050565b6000602082840312156103f3578081fd5b81356103fe81610450565b9392505050565b60008060408385031215610417578081fd5b823561042281610450565b946020939093013593505050565b600060208284031215610441578081fd5b815180151581146103fe578182fd5b6001600160a01b038116811461046557600080fd5b5056fea264697066735822122044706f17246b97ceaf767d8b40879d69b917dd83d59f75a10d93f3b2aacfb54364736f6c63430008020033",
  "linkReferences": {},
  "deployedLinkReferences": {}
}